{
  "_format": "hh-sol-artifact-1",
  "contractName": "serviceCrypto",
  "sourceName": "contracts/serviceCrypto.sol",
  "abi": [
    {
      "inputs": [],
      "stateMutability": "nonpayable",
      "type": "constructor"
    },
    {
      "inputs": [],
      "name": "getMemos",
      "outputs": [
        {
          "components": [
            {
              "internalType": "string",
              "name": "name",
              "type": "string"
            },
            {
              "internalType": "string",
              "name": "message",
              "type": "string"
            },
            {
              "internalType": "uint256",
              "name": "timestamp",
              "type": "uint256"
            },
            {
              "internalType": "address",
              "name": "from",
              "type": "address"
            }
          ],
          "internalType": "struct serviceCrypto.Memo[]",
          "name": "",
          "type": "tuple[]"
        }
      ],
      "stateMutability": "view",
      "type": "function"
    },
    {
      "inputs": [
        {
          "internalType": "string",
          "name": "name",
          "type": "string"
        },
        {
          "internalType": "string",
          "name": "message",
          "type": "string"
        }
      ],
      "name": "service",
      "outputs": [],
      "stateMutability": "payable",
      "type": "function"
    }
  ],
  "bytecode": "0x608060405234801561001057600080fd5b5033600160006101000a81548173ffffffffffffffffffffffffffffffffffffffff021916908373ffffffffffffffffffffffffffffffffffffffff160217905550610c6f806100616000396000f3fe6080604052600436106100295760003560e01c8063865c51721461002e578063ac479c4814610059575b600080fd5b34801561003a57600080fd5b50610043610075565b604051610050919061068f565b60405180910390f35b610073600480360381019061006e91906107fa565b610258565b005b60606000805480602002602001604051908101604052809291908181526020016000905b8282101561024f57838290600052602060002090600402016040518060800160405290816000820180546100cc906108a1565b80601f01602080910402602001604051908101604052809291908181526020018280546100f8906108a1565b80156101455780601f1061011a57610100808354040283529160200191610145565b820191906000526020600020905b81548152906001019060200180831161012857829003601f168201915b5050505050815260200160018201805461015e906108a1565b80601f016020809104026020016040519081016040528092919081815260200182805461018a906108a1565b80156101d75780601f106101ac576101008083540402835291602001916101d7565b820191906000526020600020905b8154815290600101906020018083116101ba57829003601f168201915b50505050508152602001600282015481526020016003820160009054906101000a900473ffffffffffffffffffffffffffffffffffffffff1673ffffffffffffffffffffffffffffffffffffffff1673ffffffffffffffffffffffffffffffffffffffff168152505081526020019060010190610099565b50505050905090565b6000341161029b576040517f08c379a00000000000000000000000000000000000000000000000000000000081526004016102929061092f565b60405180910390fd5b600160009054906101000a900473ffffffffffffffffffffffffffffffffffffffff1673ffffffffffffffffffffffffffffffffffffffff163373ffffffffffffffffffffffffffffffffffffffff160361032b576040517f08c379a00000000000000000000000000000000000000000000000000000000081526004016103229061099b565b60405180910390fd5b600160009054906101000a900473ffffffffffffffffffffffffffffffffffffffff1673ffffffffffffffffffffffffffffffffffffffff166108fc349081150290604051600060405180830381858888f19350505050158015610393573d6000803e3d6000fd5b50600060405180608001604052808481526020018381526020014281526020013373ffffffffffffffffffffffffffffffffffffffff168152509080600181540180825580915050600190039060005260206000209060040201600090919091909150600082015181600001908161040b9190610b67565b5060208201518160010190816104219190610b67565b506040820151816002015560608201518160030160006101000a81548173ffffffffffffffffffffffffffffffffffffffff021916908373ffffffffffffffffffffffffffffffffffffffff16021790555050505050565b600081519050919050565b600082825260208201905092915050565b6000819050602082019050919050565b600081519050919050565b600082825260208201905092915050565b60005b838110156104df5780820151818401526020810190506104c4565b60008484015250505050565b6000601f19601f8301169050919050565b6000610507826104a5565b61051181856104b0565b93506105218185602086016104c1565b61052a816104eb565b840191505092915050565b6000819050919050565b61054881610535565b82525050565b600073ffffffffffffffffffffffffffffffffffffffff82169050919050565b60006105798261054e565b9050919050565b6105898161056e565b82525050565b600060808301600083015184820360008601526105ac82826104fc565b915050602083015184820360208601526105c682826104fc565b91505060408301516105db604086018261053f565b5060608301516105ee6060860182610580565b508091505092915050565b6000610605838361058f565b905092915050565b6000602082019050919050565b600061062582610479565b61062f8185610484565b93508360208202850161064185610495565b8060005b8581101561067d578484038952815161065e85826105f9565b94506106698361060d565b925060208a01995050600181019050610645565b50829750879550505050505092915050565b600060208201905081810360008301526106a9818461061a565b905092915050565b6000604051905090565b600080fd5b600080fd5b600080fd5b600080fd5b7f4e487b7100000000000000000000000000000000000000000000000000000000600052604160045260246000fd5b610707826104eb565b810181811067ffffffffffffffff82111715610726576107256106cf565b5b80604052505050565b60006107396106b1565b905061074582826106fe565b919050565b600067ffffffffffffffff821115610765576107646106cf565b5b61076e826104eb565b9050602081019050919050565b82818337600083830152505050565b600061079d6107988461074a565b61072f565b9050828152602081018484840111156107b9576107b86106ca565b5b6107c484828561077b565b509392505050565b600082601f8301126107e1576107e06106c5565b5b81356107f184826020860161078a565b91505092915050565b60008060408385031215610811576108106106bb565b5b600083013567ffffffffffffffff81111561082f5761082e6106c0565b5b61083b858286016107cc565b925050602083013567ffffffffffffffff81111561085c5761085b6106c0565b5b610868858286016107cc565b9150509250929050565b7f4e487b7100000000000000000000000000000000000000000000000000000000600052602260045260246000fd5b600060028204905060018216806108b957607f821691505b6020821081036108cc576108cb610872565b5b50919050565b600082825260208201905092915050565b7f506c6561736520706179206d6f7265207468616e203020457468657220000000600082015250565b6000610919601d836108d2565b9150610924826108e3565b602082019050919050565b600060208201905081810360008301526109488161090c565b9050919050565b7f596f7520617265206f776e65722062726f000000000000000000000000000000600082015250565b60006109856011836108d2565b91506109908261094f565b602082019050919050565b600060208201905081810360008301526109b481610978565b9050919050565b60008190508160005260206000209050919050565b60006020601f8301049050919050565b600082821b905092915050565b600060088302610a1d7fffffffffffffffffffffffffffffffffffffffffffffffffffffffffffffffff826109e0565b610a2786836109e0565b95508019841693508086168417925050509392505050565b6000819050919050565b6000610a64610a5f610a5a84610535565b610a3f565b610535565b9050919050565b6000819050919050565b610a7e83610a49565b610a92610a8a82610a6b565b8484546109ed565b825550505050565b600090565b610aa7610a9a565b610ab2818484610a75565b505050565b5b81811015610ad657610acb600082610a9f565b600181019050610ab8565b5050565b601f821115610b1b57610aec816109bb565b610af5846109d0565b81016020851015610b04578190505b610b18610b10856109d0565b830182610ab7565b50505b505050565b600082821c905092915050565b6000610b3e60001984600802610b20565b1980831691505092915050565b6000610b578383610b2d565b9150826002028217905092915050565b610b70826104a5565b67ffffffffffffffff811115610b8957610b886106cf565b5b610b9382546108a1565b610b9e828285610ada565b600060209050601f831160018114610bd15760008415610bbf578287015190505b610bc98582610b4b565b865550610c31565b601f198416610bdf866109bb565b60005b82811015610c0757848901518255600182019150602085019450602081019050610be2565b86831015610c245784890151610c20601f891682610b2d565b8355505b6001600288020188555050505b50505050505056fea26469706673582212206dcc50a95718d84b52a1f9bb976eaf2ecb2a4c4a06cc54776d037846f14ab49664736f6c63430008110033",
  "linkReferences": {},
  "deployedLinkReferences": {}
}